:020000040800F2
:1000000088040020050100080712000851100008AC
:1000100005120008F3010008871400080000000022
:100020000000000000000000000000000B120008AB
:10003000F501000800000000091200080D12000878
:100040001F0100081F0100081F0100081F01000810
:100050001F0100081F0100081F0100081F01000800
:100060001F0100081F0100081F0100081F010008F0
:100070001F0100081F0100081F0100081F010008E0
:100080001F0100081F0100081F0100081F010008D0
:100090001F0100081F0100081F0100081F010008C0
:1000A0001F0100081F0100081F0100081F010008B0
:1000B0001F0100081F010008000000001F010008C8
:1000C0001F01000800000000000000001F010008E0
:1000D000000000001F0100081F01000800000000D0
:1000E0001F0100081F0100081F010008DFF810D0E1
:1000F00000F042F80048004705180008AFF3008000
:10010000880400200648804706480047FEE7FEE7CF
:10011000FEE7FEE7FEE7FEE7FEE7FEE7FEE7FEE7B7
:1001200079120008ED000008D2B201E000F8012BBE
:10013000491EFBD270470022F6E710B513460A4667
:1001400004461946FFF7F0FF204610BD30B50B46B8
:10015000014600202022012409E021FA02F59D42F7
:1001600005D303FA02F5491B04FA02F52844151ECB
:10017000A2F10102F1DC30BD064C074D06E0E0685B
:1001800040F0010394E8070098471034AC42F6D3DE
:10019000FFF7B0FF101A0008301A000870B50446C7
:1001A00000688168C943C90717D1816821F001013E
:1001B000816000F055FA05460AE000BF00F050FAF1
:1001C000401B022804D920688068C043C00706D0BD
:1001D00020688068C043C007F0D0002070BDA06ACE
:1001E00040F01000A062E06A40F00100E0620120EF
:1001F00070BDFEE770470000F8B50024009490F849
:1002000024202546012A12D0012280F824204A68A1
:100210001F23072A0DD20668776B521E02EB82025B
:1002200093409F430B6893401F43776319E002207C
:10023000F8BD06680D2A0AD2376BD21F02EB820284
:1002400093409F430B6893401F43376309E0F76A6D
:100250000D3A02EB820293409F430B6893401F4389
:10026000F7620A68072306680A2A0AD3F7680A3A77
:1002700002EB420293409F438B6893401F43F76019
:1002800008E0376902EB420293409F438B6893403A
:100290001F4337610A68102A01D0112A20D1124B5E
:1002A00002689A4217D193681B0219D4936843F4E9
:1002B000000393600968102912D10C490C4A09689F
:1002C000B1FBF2F101EB8101490000E0491E009110
:1002D0000029FBD104E0816A41F020018162012400
:1002E00080F824502046F8BD002401400C00002076
:1002F00040420F002DE9F0414FF0000704003D4659
:100300007ED0A06A002628B9E66284F824602046E0
:1003100000F07EF82046FFF741FFA16AC90600D42D
:1003200020B1A06A40F01000A06269E0A16A21F447
:10033000885141F00201A1626268E169237B0A43AE
:1003400047EA43010A43A1684FF48077B94209D0D4
:10035000012907D05FF0000194F814C0BCF1010F2F
:1003600002D00AE03946F7E7F3B1A36A43F020036D
:10037000A362E36A43F00103E3622368D3F804C095
:100380002CF4694C4CEA010CC3F804C021688B685A
:10039000DFF870C003EA0C0313438B60A168B94215
:1003A0000BD0012909D00CE0DFF85CC0A3690CEB8D
:1003B00043330B4343F40061DFE7218A0D05A5F5C4
:1003C00080152168CB6A23F470032B43CB6221682C
:1003D00089680E4B1940914208D1E662A16A21F06A
:1003E000020141F00101A162BDE8F081A06A20F0A4
:1003F000020040F01000A062E06A40F00100E062FC
:100400000120F1E7FDF7E1FF00E0FFFFFE0E1FFF17
:1004100000B585B00021009101910291039100681F
:100420000E49884218D10E48816941F400718161FA
:10043000816901F400710491816941F004018161D5
:100440008069694600F004000490022000900320B7
:100450000190044800F01AF805B000BD00240140E6
:10046000001002400008014070B5044600F0F8F8A2
:100470000546601C02D004480078044400F0F0F8FF
:10048000401BA042FAD370BD000000202DE9F84FB8
:10049000DFF89C91002409F1040A0AF1040B2346B9
:1004A0000F270BF1040EBBE00125A5402A40AA420C
:1004B00076D1DFF880C14E68A6EB0C0866452BD0DC
:1004C0000DDC032E34D005DC36B3012E19D0022EFC
:1004D0002FD11BE0112E16D0122E2AD119E0B8F51B
:1004E000881F19D006DCB8F5803F15D0B8F5801FFD
:1004F0001FD111E0B8F5001F0ED0B8F5041F18D1B8
:100500000AE0CB6815E0CB681B1D12E0CB6808330E
:100510000FE0CB680C330CE08B682BB1012B4FF054
:10052000080303D0456104E0042302E0056100E014
:100530000023FF2A01D8064601E000F104064FEA35
:10054000840501D9A5F12005D6F8008007FA05FC3D
:1005500028EA0C0803FA05F548EA0508C6F8008001
:100560004D68ED005BD5344DAE6946F00106AE61D5
:10057000AD6924F0030605F0010500952F4D06EB4B
:10058000050CDCF80850A607360F07FA06F825EA2E
:100590000805DFF8AC80404503D14FF0000810E0BB
:1005A0003DE0DFF8A080404502D14FF0010808E0AF
:1005B000DFF89480404502D14FF0020801E04FF08F
:1005C000030808FA06F848EA0508CCF808804D68E0
:1005D000D9F80060ED034D4601D5164300E096437F
:1005E0002E604D68DAF80060AD03554601D516431C
:1005F00000E096432E604D68DBF80060ED025D463A
:1006000001D5164300E096432E604D68DEF8006089
:10061000AD02754601D5164300E096432E60641C7A
:100620000A6832FA04F57FF43FAFBDE8F88F0000A6
:1006300000040140000011100010024000000140C1
:1006400000080140000C0140001001408068084093
:1006500000D0012070470AB1016170470904FBE72F
:10066000014880687047000000000020024881684F
:10067000027811448160704700000020074810B5DF
:10068000016841F010010160032000F067F80020CC
:1006900000F006F800F024F8002010BD0020024011
:1006A00070B50D4D04464FF47A712878B1FBF0F027
:1006B0000A490968B1FBF0F000F034FB48B9102C8E
:1006C00007D200222146501E00F028F800206C605E
:1006D00070BD012070BD0000000000200C00002053
:1006E0000C4808B5816941F001018161816901F01F
:1006F00001010091C16941F08051C161C06900F000
:10070000805000900448416821F0E06141F00071A0
:10071000416008BD0010024000000140F0B40E4BE3
:100720001B680C46C3F30223C3F10705042D00D94F
:100730000425191D072901D2002300E0DB1E012634
:1007400006FA05F1491E214099409E40761E16404A
:100750003143F0BC00F0ACBE0CED00E0064900F007
:10076000070208684FF6FF03184040EA0220034AD8
:1007700010430860704700000CED00E00000FA052F
:100780002DE9F84305460078354CC00754D0E069A0
:100790000026C00008D4E06940F08050E061E069C4
:1007A000012600F0805000902E480168C90512D43F
:1007B0000168804641F480710160FFF751FF0746F0
:1007C00005E000BFFFF74CFFC01B642823D8D8F812
:1007D0000000C005F6D5206A10F4407021D0A98829
:1007E00001F4407181421CD0206A1F49012220F48B
:1007F00040700A6000220A602062C00711D0FFF733
:100800002FFF074641F2883808E000BFFFF728FFB6
:10081000C11B414502D90320BDE8F883206A800747
:10082000F4D5206A696820F44070084320621EB144
:10083000E06920F08050E0612878800705D5606885
:10084000A96820F44040084360602878C00605D5B8
:100850006068E96820F48000084360600020DBE7FE
:100860000010024000700040400442422DE9F04771
:100870000F46050061D0434E306800F00700B842D3
:1008800009D2306820F0070038433060306800F04B
:100890000700B84251D128683B4C810712D5400768
:1008A00003D5606840F4E06060602878000703D5F5
:1008B000606840F4605060606068A96820F0F000F3
:1008C000084360602878C00728D06868012810D0E5
:1008D0002168022810D0890700292EDA616821F0EA
:1008E000030101436160FFF7BBFE804641F2883996
:1008F0000DE021688903EFE78901EDE7FFF7B0FE1E
:10090000A0EB0801494502D90320BDE8F0876068E3
:10091000696800F00C00B0EB810FEFD1306800F097
:100920000700B8420BD9306820F007003843306028
:10093000306800F00700B84201D00120E5E72878D0
:10094000400705D56068E96820F4E060084360600E
:100950002878000706D56068296920F4605040EACD
:10096000C100606000F018F86168084AC1F3031123
:10097000515CC8400649086006480068FFF790FED1
:100980000020C2E70020024000100240001A0008C8
:100990000C0000200400002012A185B00FC98DE8D2
:1009A0000F0014A0144A006804905168134801F025
:1009B0000C03042B10D0082B0ED1C1F38343C903C1
:1009C0001DF803000AD5516804AAC1F34041515CE7
:1009D0000A4A5043B0FBF1F005B07047084948435C
:1009E000FAE7000002030405060708090A0B0C0DCC
:1009F0000E0F1010010200000010024000127A00D9
:100A000000093D002DE9F84F040070D02078C04D5A
:100A1000C00749D06868C0F38100012807D0686822
:100A2000C0F38100022809D16868C00306D5286890
:100A3000800339D560680028E7D035E06068B0F5FC
:100A4000803F0BD010B1B0F5A02F11D0286820F452
:100A500080302860286820F4802002E0286840F474
:100A600080302860606890B1FFF7FAFD06460AE022
:100A7000286840F480202860F0E700BFFFF7F0FD11
:100A8000801B642873D828688003F7D50CE0FFF733
:100A9000E7FD064605E000BFFFF7E2FD801B642886
:100AA000F0D828688003F7D420789A4E80074FF05A
:100AB00001094FF0000839D5686810F00C0F07D015
:100AC0006868C0F38100022809D16868C00306D4B1
:100AD0002868800714D52069012808D110E0206912
:100AE000B0B1C6F80090FFF7BBFD074605E00AE18C
:100AF000FFF7B6FDC01B0228C4D828688007F7D5C9
:100B00002868616920F0F80040EAC10028600DE023
:100B1000C6F80080FFF7A4FD074604E0FFF7A0FD3C
:100B2000C01B022823D828688007F7D42078000744
:100B30002CD57948A169D9B1C0F80090FFF790FD94
:100B4000074604E0FFF78CFDC01B02280FD8686A37
:100B50008007F7D571484FF4FA510068B0FBF1F007
:100B6000009000BF0098411E0091FAD20EE080E094
:100B7000C0F80080FFF774FD074604E0FFF770FD42
:100B8000C01B022875D8686A8007F7D42078400710
:100B900060D5E8690027C00008D4E86940F08050BB
:100BA000E861E869012700F0805000905C48016826
:100BB000C90513D40168834641F480710160FFF7D1
:100BC0004FFD824606E000BFFFF74AFDA0EB0A009A
:100BD00064284ED8DBF80000C005F5D5E068012890
:100BE0000AD008B1052813D0286A20F00100286235
:100BF000286A20F0040002E0286A40F00100286220
:100C0000E06841F2883B98B1FFF72AFD82460BE08D
:100C1000286A40F004002862EEE700BFFFF720FDDD
:100C2000A0EB0A0159455AD8286A8007F6D50CE08E
:100C3000FFF716FD824605E0FFF712FDA0EB0A0163
:100C400059454CD8286A8007F6D41FB1E86920F0CE
:100C50008050E861E06988B36968C1F381010229C5
:100C600044D00228C6F8608004D0FFF7F9FC04469F
:100C700038E034E0FFF7F4FC074604E0FFF7F0FC4F
:100C8000C01B02282BD828688001F7D4206AB0F551
:100C9000803F05D16868A16820F40030084368608F
:100CA000D4E908010843696821F4741108436860B5
:100CB000C6F86090FFF7D4FC044606E025E000BFCC
:100CC000FFF7CEFC001B022809D828688001F7D561
:100CD0001BE000BFFFF7C4FC001B022802D9032061
:100CE000BDE8F88F28688001F4D40EE00128F7D021
:100CF0006868226A00F48031914204D1616A00F48C
:100D00007010884201D00120EAE70020E8E70000E7
:100D10000010024000004242800442420C000020C9
:100D20000070004010B5401EB0F1807F01D301205B
:100D300010BD4FF0E02460610F21601700F0B8FB98
:100D40000020A06107202061002010BD10B590F8A0
:100D50003C20012A22D0012280F83C20CA688C68FD
:100D600022F4407222434C6822F4806222430C68D1
:100D700022F4006222430C6922F4805222434C691F
:100D800022F400522243C969002322F480420A431C
:100D900001684A6480F83C30002010BD022010BD7C
:100DA00070B590F83C20012A23D0012480F83C4003
:100DB000022280F83D2003685A689D6822F0700680
:100DC0000A6832435A600C4B02689A4205D0B2F16D
:100DD000804F02D0094B9A4204D1496825F0800324
:100DE0001943916080F83D40002180F83C1008468E
:100DF00070BD022070BD0000002C014000040040C6
:100E000010B5040003D094F83D0010B107E00120B4
:100E100010BD002084F83C00204600F01FF802209E
:100E200084F83D00211D206800F028FA012084F894
:100E3000460084F83E0084F83F0084F8400084F8BF
:100E4000410084F8420084F8430084F8440084F8A8
:100E5000450084F83D00002010BD000008B5006882
:100E60000649884208D10648816941F400618161E0
:100E7000806900F40060009008BD0000002C014073
:100E80000010024070B5044690F83C00012817D0CD
:100E9000012584F83C50022084F83D0020688268D7
:100EA00022F0770222F47F4282600868502830D016
:100EB0000DDC20284DD005DC98B310283BD148E04C
:100EC000022070BD302844D0402834D139E0602859
:100ED00028D0702806D0B0F5805F2CD0B0F5005F28
:100EE00029D10AE0CB68D1E90121206800F0F4F9AA
:100EF0002068816841F0770109E0CB68D1E90121E0
:100F0000206800F0E9F92068816841F4804181603F
:100F100011E0CA684968206800F092FA5021206800
:100F200007E016E0CA684968206800F09AFA602174
:100F3000206800F0DBF984F83D50002084F83C0084
:100F400070BDCA684968206800F07AFA40212068BC
:100F5000EFE7226801461046EBE7000000B585B0D8
:100F60000021009101910291039100680B49884290
:100F700012D10B48816941F00401816180696946A1
:100F800000F0040004904FF4807000900220019063
:100F900003900448FFF77AFA05B000BD002C014029
:100FA000001002400008014010B5044690F83C00D3
:100FB00001280AD0012084F83C0042B1042A0AD05A
:100FC000082A0CD00C2A11D10DE0022010BD206897
:100FD00000F094F90AE0206800F0B8F906E0206813
:100FE00000F0E0F902E0206800F008FA002084F840
:100FF0003C0010BD10B5040003D094F83D0010B1C2
:1010000007E0012010BD002084F83C00204600F0DD
:101010001EF8022084F83D00211D206800F02EF902
:10102000012084F8460084F83E0084F83F0084F8EC
:10103000400084F8410084F8420084F8430084F8BA
:10104000440084F8450084F83D00002010BD70473E
:10105000FEE700003EB5002410480094019402947D
:101060000D498460016004730475012505614FF426
:1010700060214460C161FFF73DF908B172B6FEE737
:101080000095CDE9015469460448FFF7B5F80028FA
:1010900001D072B6FEE73EBD0024014010000020E2
:1010A0002DE9F04385B00024224800940194029475
:1010B0000394816941F004018161816901F00401B7
:1010C0000491816941F0080181618069DFF86880DD
:1010D00000F008004FF67F45049000222946404664
:1010E000FFF7B9FADFF854904FF400470022394671
:1010F0004846FFF7B0FA40F2FD20CDE9000469460A
:1011000048460294FFF7C2F900950226012503968E
:10111000CDE9015469464046FFF7B8F900970396B8
:10112000CDE9015469464846FFF7B0F905B0BDE87E
:10113000F083000000100240000C01400008014054
:1011400010B596B000240F94109411941294139437
:101150001C2108A81494FEF7EEFF20216846FEF734
:10116000EAFF27482549C0E900144FF6FF71C0E99E
:101170000241046144618461FFF742FE08B172B626
:10118000FEE74FF480500F900FA91D48FFF77AFE3D
:1011900008B172B6FEE71A48FFF72CFF08B172B625
:1011A000FEE7139413A916481494FFF7F9FD08B14C
:1011B00072B6FEE7089409940A940B940C940D946B
:1011C000002208A90E480E94FFF7EEFE08B172B691
:1011D000FEE700944FF40050CDE9044002940194DE
:1011E0000394694606480794FFF7B0FD08B172B64C
:1011F000FEE70348FFF7B2FE16B010BD002C014019
:1012000040000020FEE7FEE770477047FFF72EBA68
:1012100030B593B028216846FEF78DFF14210AA847
:10122000FEF789FF002401200F9402250490009509
:101230001020119405901094129407946846FFF7BB
:10124000E1FB08B172B6FEE70F20CDE90A040C9469
:101250000D9400210AA80E94FFF708FB08B172B69E
:10126000FEE70FA80F951194FFF78AFA002801D026
:1012700072B6FEE713B030BD7047000070B502686B
:10128000134B144C4FF08046984203D0B04201D02B
:10129000A04203D122F070054A682A43984203D045
:1012A000B04201D0A04203D122F44074CA68224364
:1012B0004C6922F08002224302608A68C2620A6896
:1012C0008262984201D1096901630121416170BDC7
:1012D000002C01400004004010B5846842EA03225B
:1012E00024F47F440A432243826010BD826822F0C6
:1012F00070020A4342F007018160704730B5026A0C
:1013000022F001020262026A4368846924F07305D4
:101310000C682C4322F002058A682A430A4DA84231
:101320000BD122F00805CA6823F440732A434D69A3
:1013300022F004021D438B692B434360846149689A
:101340004163026230BD0000002C014030B5026AEA
:1013500022F010020262026A436884690D6824F474
:10136000E64444EA05248D6822F0200242EA051290
:101370000B4DA8420ED1CD6822F0800242EA051240
:101380004D6923F4406343EA85038D6922F04002EE
:1013900043EA85034360846149688163026230BD2A
:1013A000002C014030B5026A22F480720262036AA6
:1013B0004268C46923F4007324F073050C682C435D
:1013C0008D6843EA05230C4DA8420ED1CD6823F465
:1013D000006343EA05234D6922F4405242EA0512B4
:1013E0008D6923F4806342EA05124260C461496852
:1013F000C163036230BD0000002C014030B5026AB9
:1014000022F480520262046A4268C3690D6823F4C0
:10141000E64343EA05238D6824F4005444EA053486
:10142000064DA84204D14D6922F4804242EA851259
:101430004260C36149680164046230BD002C014010
:1014400010B5036A046A24F001040462846924F07C
:10145000F00444EA021423F00A020A43846102629F
:1014600010BD10B5036A23F0100303628369046A98
:1014700023F4704343EA023224F0A00343EA01114B
:101480008261016210BDFEE70FB4084B10B504A9DC
:1014900002AA039800F02CF8044602A9002000F0EC
:1014A000D1F8204610BC5DF814FB0000451600087A
:1014B0000907090E002804DB00F1E02080F8001481
:1014C000704700F00F0000F1E02080F8141D704715
:1014D00002E008C8121F08C1002AFAD170477047FD
:1014E000002001E001C1121F002AFBD1704700005B
:1014F0002DE9FF4F89B09B460446002506E02528CC
:101500000BD05A460B999047641C6D1C207800281C
:10151000F5D10DB02846BDE8F08F0027B84601226E
:10152000474900E0074314F8013F203B02FA03F06B
:101530000842F7D120782E2819D114F8010F47F06E
:1015400004072A280ED06FF02F022078A0F1300176
:1015500009290CD808EB880102EB410100EB0108D6
:10156000641CF2E70A98641C50F8048B0A902078F7
:101570000028CED0642808D0692806D075281ED04F
:101580005A460B9990476D1C58E00A994FF00A098A
:1015900001C90A91002802DA40422D2102E03905F2
:1015A00004D52B218DF82010012103E0F90704D088
:1015B0002021F7E78A4608AE0DE00021FAE70A99F4
:1015C0004FF00A0901C90A91F7E74946FEF7BEFD47
:1015D000303106F8011D0028F7D1ADEB060000F10F
:1015E0002009780701D44FF00108C84502DDA8EBB7
:1015F000090000E000208046002706E008A85A46BF
:10160000C05D0B9990476D1C7F1C5745F6DB04E0CD
:1016100030205A460B9990476D1CB8F10001A8F193
:101620000108F5DC05E016F8010B5A460B999047C6
:101630006D1CB9F10001A9F10109F4DC641C65E736
:10164000092801000A68531C0B60107070470000E5
:1016500070B51E20FEF708FF1C4C00224FF400510D
:101660002046FEF7F8FF012211032046FEF7F3FFA4
:101670000022E1142046FEF7EEFF0022211520464D
:10168000FEF7E9FF00224FF400412046FEF7E3FF9A
:101690000122950329462046FEF7DDFF0022294658
:1016A0002046FEF7D8FF2821002000F031F80C2159
:1016B000002000F02DF80621002000F029F8BDE8F8
:1016C00070400121002000F023B80000000C014010
:1016D00010B5144630B1012806D0022806D00328E0
:1016E00011D105E0803104E0C03102E0903100E02A
:1016F000D031C9B2002000F00BF804E0C1B20120E3
:1017000000F006F8641C20780028F7D110BD000016
:101710002DE9F04706460C460220FEF7A5FE384D9F
:101720004FF400410EB1012200E000222846FEF7EE
:1017300092FF20064FF4806701D5012200E00022CD
:1017400039462846FEF787FF60064FF4006801D54A
:10175000012200E0002241462846FEF77CFFA00659
:101760004FF4805901D5012200E000224946284665
:10177000FEF771FFE0064FF4005A01D5012200E0A8
:10178000002251462846FEF766FF012296033146A5
:101790002846FEF760FF002231462846FEF75BFF31
:1017A000200701D5012200E0002239462846FEF735
:1017B00052FF600701D5012200E000224146284681
:1017C000FEF749FFA00701D5012200E000224946AB
:1017D0002846FEF740FFE00701D0012200E000228A
:1017E00051462846FEF737FF012231462846FEF7CC
:1017F00032FF31462846BDE8F0470022FEF72BBFF6
:10180000000C014008B53227192520243E464FF030
:101810000008FEF733FFFFF7FBFCFFF741FCFFF783
:1018200019FCFFF78DFCFFF713FFDFF8B491DFF829
:10183000B4A14FF4807B08214846FEF707FF08B1AA
:101840006D1CEDB210214846FEF700FF08B16D1E79
:10185000EDB201214846FEF7F9FE08B1641CE4B27E
:1018600004214846FEF7F2FE08B1641EE4B22021CE
:101870004846FEF7EBFE08B17F1CFFB24021484608
:10188000FEF7E4FE08B17F1EFFB280214846FEF756
:10189000DDFE08B1761CF6B259464846FEF7D6FE84
:1018A00008B1761EF6B21E2D06D90022012150463F
:1018B000FEF7D1FE012209E00F2D01D2012200E046
:1018C000002201215046FEF7C6FE002202215046AA
:1018D000FEF7C1FE282C01D9012218E0142C15D2E4
:1018E000B8F1320F0AD9002204215046FEF7B3FEA8
:1018F000012208215046FEF7AEFE03E008F1010088
:10190000C0B28046282F0DD201220CE00022042113
:101910005046FEF7A0FE002208215046FEF79BFE2F
:101920000020EEE7002210215046FEF794FE282EFC
:1019300001D2012200E0002220215046FEF78BFE5A
:10194000002129A20846FFF7C3FE2A4627A10098D6
:10195000FFF79AFD04210020009AFFF7B9FE24A2A8
:1019600000210120FFF7B4FE224620A10098FFF7D6
:101970008BFD04210120009AFFF7AAFE1DA207217A
:101980000020FFF7A5FE3A4618A10098FFF77CFD5E
:101990000B210020009AFFF79BFE17A207210120D0
:1019A000FFF796FE324611A10098FFF76DFD0B215F
:1019B0000120009AFFF78CFE10A20E210020FFF7F5
:1019C00087FE424609A10098FFF75EFD0E21012027
:1019D000009AFFF77DFEC820FEF746FD2BE70000CA
:1019E00000080140000C0140543A0000256400004A
:1019F0004C3A00004F313A004F323A00433A00006F
:101A000000000000000000000102030406070809AE
:101A1000301A00080000002010000000D014000858
:101A2000401A00081000002078040000E0140008AC
:101A30000100000010000000000000000024F4007D
:04000005080000ED02
:00000001FF
